{
  "_format": "hh-sol-artifact-1",
  "contractName": "ZKPassKYCRegistry",
  "sourceName": "contracts/zk_kyc_verification.sol",
  "abi": [
    {
      "inputs": [
        {
          "internalType": "address",
          "name": "_verifier",
          "type": "address"
        }
      ],
      "stateMutability": "nonpayable",
      "type": "constructor"
    },
    {
      "anonymous": false,
      "inputs": [
        {
          "indexed": true,
          "internalType": "address",
          "name": "user",
          "type": "address"
        }
      ],
      "name": "KYCVerified",
      "type": "event"
    },
    {
      "inputs": [
        {
          "internalType": "address",
          "name": "user",
          "type": "address"
        }
      ],
      "name": "checkKYC",
      "outputs": [
        {
          "internalType": "bool",
          "name": "",
          "type": "bool"
        }
      ],
      "stateMutability": "view",
      "type": "function"
    },
    {
      "inputs": [
        {
          "internalType": "address",
          "name": "",
          "type": "address"
        }
      ],
      "name": "isKYCed",
      "outputs": [
        {
          "internalType": "bool",
          "name": "",
          "type": "bool"
        }
      ],
      "stateMutability": "view",
      "type": "function"
    },
    {
      "inputs": [
        {
          "internalType": "bytes",
          "name": "proof",
          "type": "bytes"
        },
        {
          "internalType": "bytes",
          "name": "inputs",
          "type": "bytes"
        }
      ],
      "name": "submitKYC",
      "outputs": [],
      "stateMutability": "nonpayable",
      "type": "function"
    },
    {
      "inputs": [],
      "name": "verifier",
      "outputs": [
        {
          "internalType": "contract zk_kyc_verification",
          "name": "",
          "type": "address"
        }
      ],
      "stateMutability": "view",
      "type": "function"
    }
  ],
  "bytecode": "0x608060405234801561001057600080fd5b506040516108e43803806108e4833981810160405281019061003291906100db565b806000806101000a81548173ffffffffffffffffffffffffffffffffffffffff021916908373ffffffffffffffffffffffffffffffffffffffff16021790555050610108565b600080fd5b600073ffffffffffffffffffffffffffffffffffffffff82169050919050565b60006100a88261007d565b9050919050565b6100b88161009d565b81146100c357600080fd5b50565b6000815190506100d5816100af565b92915050565b6000602082840312156100f1576100f0610078565b5b60006100ff848285016100c6565b91505092915050565b6107cd806101176000396000f3fe608060405234801561001057600080fd5b506004361061004c5760003560e01c80632b7ac3f3146100515780637de71df01461006f5780638846594b1461008b578063b4c7f1ed146100bb575b600080fd5b6100596100eb565b6040516100669190610410565b60405180910390f35b6100896004803603810190610084919061049a565b61010f565b005b6100a560048036038101906100a09190610559565b61031b565b6040516100b291906105a1565b60405180910390f35b6100d560048036038101906100d09190610559565b610371565b6040516100e291906105a1565b60405180910390f35b60008054906101000a900473ffffffffffffffffffffffffffffffffffffffff1681565b600160003373ffffffffffffffffffffffffffffffffffffffff1673ffffffffffffffffffffffffffffffffffffffff16815260200190815260200160002060009054906101000a900460ff161561019c576040517f08c379a000000000000000000000000000000000000000000000000000000000815260040161019390610619565b60405180910390fd5b60008054906101000a900473ffffffffffffffffffffffffffffffffffffffff1673ffffffffffffffffffffffffffffffffffffffff1663b8e72af6858585856040518563ffffffff1660e01b81526004016101fb9493929190610697565b602060405180830381865afa158015610218573d6000803e3d6000fd5b505050506040513d601f19601f8201168201806040525081019061023c91906106fe565b61027b576040517f08c379a000000000000000000000000000000000000000000000000000000000815260040161027290610777565b60405180910390fd5b60018060003373ffffffffffffffffffffffffffffffffffffffff1673ffffffffffffffffffffffffffffffffffffffff16815260200190815260200160002060006101000a81548160ff0219169083151502179055503373ffffffffffffffffffffffffffffffffffffffff167f65c84ee842eafc291d1272a6e3d10f8c454c4288e63f5db3f7be2b3012f321a960405160405180910390a250505050565b6000600160008373ffffffffffffffffffffffffffffffffffffffff1673ffffffffffffffffffffffffffffffffffffffff16815260200190815260200160002060009054906101000a900460ff169050919050565b60016020528060005260406000206000915054906101000a900460ff1681565b600073ffffffffffffffffffffffffffffffffffffffff82169050919050565b6000819050919050565b60006103d66103d16103cc84610391565b6103b1565b610391565b9050919050565b60006103e8826103bb565b9050919050565b60006103fa826103dd565b9050919050565b61040a816103ef565b82525050565b60006020820190506104256000830184610401565b92915050565b600080fd5b600080fd5b600080fd5b600080fd5b600080fd5b60008083601f84011261045a57610459610435565b5b8235905067ffffffffffffffff8111156104775761047661043a565b5b6020830191508360018202830111156104935761049261043f565b5b9250929050565b600080600080604085870312156104b4576104b361042b565b5b600085013567ffffffffffffffff8111156104d2576104d1610430565b5b6104de87828801610444565b9450945050602085013567ffffffffffffffff81111561050157610500610430565b5b61050d87828801610444565b925092505092959194509250565b600061052682610391565b9050919050565b6105368161051b565b811461054157600080fd5b50565b6000813590506105538161052d565b92915050565b60006020828403121561056f5761056e61042b565b5b600061057d84828501610544565b91505092915050565b60008115159050919050565b61059b81610586565b82525050565b60006020820190506105b66000830184610592565b92915050565b600082825260208201905092915050565b7f416c7265616479204b5943656400000000000000000000000000000000000000600082015250565b6000610603600d836105bc565b915061060e826105cd565b602082019050919050565b60006020820190508181036000830152610632816105f6565b9050919050565b600082825260208201905092915050565b82818337600083830152505050565b6000601f19601f8301169050919050565b60006106768385610639565b935061068383858461064a565b61068c83610659565b840190509392505050565b600060408201905081810360008301526106b281868861066a565b905081810360208301526106c781848661066a565b905095945050505050565b6106db81610586565b81146106e657600080fd5b50565b6000815190506106f8816106d2565b92915050565b6000602082840312156107145761071361042b565b5b6000610722848285016106e9565b91505092915050565b7f496e76616c6964205a4b2070726f6f6600000000000000000000000000000000600082015250565b60006107616010836105bc565b915061076c8261072b565b602082019050919050565b6000602082019050818103600083015261079081610754565b905091905056fea26469706673582212209cd2311a81416c3eb63c10298c60131147a97e75d0572f0079c94939979e834064736f6c634300081c0033",
  "linkReferences": {},
  "deployedLinkReferences": {}
}